:100000000C9434000C943E000C943E000C943E0082
:100010000C943E000C943E000C943E000C943E0068
:100020000C943E000C943E000C943E000C943E0058
:100030000C943E000C943E000C943E000C943E0048
:100040000C943E000C943E000C943E000C943E0038
:100050000C943E000C943E000C943E000C943E0028
:100060000C943E000C943E0011241FBECFEFD8E04C
:10007000DEBFCDBF0E9440000C9466000C940000CF
:100080008FEF8AB91BB817B880E480937C00809109
:100090007C00806280937C0080917C0081608093F2
:1000A0007C0087E080937A0080917A00806880935A
:1000B0007A0080917A00806480937A0080917A003F
:1000C00086FDFCCF809179008BB9F3CFF894FFCFF8
:00000001FF
