:100000000C9434000C943E000C943E000C943E0082
:100010000C943E000C943E000C943E000C943E0068
:100020000C943E000C943E000C943E000C943E0058
:100030000C943E000C943E000C943E000C943E0048
:100040000C943E000C943E000C943E000C943E0038
:100050000C943E000C943E000C943E000C943E0028
:100060000C943E000C943E0011241FBECFEFD8E04C
:10007000DEBFCDBF0E94D4000C94F8020C940000A7
:1000800080E28AB981E084BD88E085BD84B5806264
:1000900084BD85B5856085BD8CE987BD089580E602
:1000A00080937C0087E880937A000895CF92DF9256
:1000B000EF92FF9269017A0120E030E04AEF54E4C8
:1000C0000E948B0220E030E04AEF54E40E94F000EE
:1000D0000E94CE01709389006093880020E030E098
:1000E0004AEF54E4C701B6010E948B0220E030E0E1
:1000F0004AEF54E40E94F0000E94CE0170938B00FE
:1001000060938A00FF90EF90DF90CF900895892B45
:1001100019F088E088BD089580E1FCCF80E88AB9B5
:100120008FEF8BB9089589B1082E000C990B892F98
:10013000881F8827881F90E008950197D1F481E6F1
:1001400080937C0080917A00806480937A00809113
:100150007A0086FDFCCF6091790070E090E080E04D
:100160000E94FF0120E030E04FE753E40E945C0171
:10017000089580E6E5CF86E084B9E0E8F0E080818C
:10018000806A8083808182608083E1E8F0E0808102
:10019000886180838081826080838FE39CE9909373
:1001A00087008093860008950E948E000E944F0071
:1001B0000E94BB000E94400081E090E00E949D00F0
:1001C0006B017C0190E080E00E949D00A7019601F8
:1001D0000E9456000E9493000E948700EDCF505865
:1001E000BB27AA270E9407010C9451020E944302D8
:1001F00038F00E944A0220F039F49F3F19F426F4A7
:100200000C9440020EF4E095E7FB0C943A02E92FBF
:100210000E94620258F3BA176207730784079507B2
:1002200020F079F4A6F50C9484020EF4E0950B2EE0
:10023000BA2FA02D0B01B90190010C01CA01A00138
:100240001124FF27591B99F0593F50F4503E68F193
:100250001A16F040A22F232F342F4427585FF3CFD4
:10026000469537952795A795F0405395C9F77EF4A5
:100270001F16BA0B620B730B840BBAF09150A1F0EE
:10028000FF0FBB1F661F771F881FC2F70EC0BA0F74
:10029000621F731F841F48F4879577956795B795FC
:1002A000F7959E3F08F0B0CF9395880F08F09927F7
:1002B000EE0F9795879508950E9470010C94510256
:1002C0000E944A0258F00E94430240F029F45F3F26
:1002D00029F00C943A0251110C9485020C944002BE
:1002E0000E94620268F39923B1F3552391F3951BA1
:1002F000550BBB27AA2762177307840738F09F5F47
:100300005F4F220F331F441FAA1FA9F335D00E2EB3
:100310003AF0E0E832D091505040E695001CCAF720
:100320002BD0FE2F29D0660F771F881FBB1F2617E3
:1003300037074807AB07B0E809F0BB0B802DBF01BA
:10034000FF2793585F4F3AF09E3F510578F00C9489
:100350003A020C9485025F3FE4F3983ED4F386950D
:1003600077956795B795F7959F5FC9F7880F911DAA
:100370009695879597F90895E1E0660F771F881F96
:10038000BB1F621773078407BA0720F0621B730B49
:10039000840BBA0BEE1F88F7E09508950E946A025D
:1003A00088F09F5798F0B92F9927B751B0F0E1F036
:1003B000660F771F881F991F1AF0BA95C9F714C0E6
:1003C000B13091F00E948402B1E008950C9484024F
:1003D000672F782F8827B85F39F0B93FCCF386951F
:1003E00077956795B395D9F73EF49095809570957C
:1003F00061957F4F8F4F9F4F0895E89409C097FBF9
:100400003EF490958095709561957F4F8F4F9F4FEB
:100410009923A9F0F92F96E9BB279395F69587952F
:1004200077956795B795F111F8CFFAF4BB0F11F4F2
:1004300060FF1BC06F5F7F4F8F4F9F4F16C0882399
:1004400011F096E911C0772321F09EE8872F762FCF
:1004500005C0662371F096E8862F70E060E02AF010
:100460009A95660F771F881FDAF7880F96958795FC
:1004700097F9089597F99F6780E870E060E0089524
:100480009FEF80EC089500240A94161617061806AC
:100490000906089500240A94121613061406050688
:1004A0000895092E0394000C11F4882352F0BB0F19
:1004B00040F4BF2B11F460FF04C06F5F7F4F8F4F7C
:1004C0009F4F089557FD9058440F551F59F05F3FB7
:1004D00071F04795880F97FB991F61F09F3F79F066
:1004E00087950895121613061406551FF2CF4695E8
:1004F000F1DF08C0161617061806991FF1CF86956A
:100500007105610508940895E894BB27662777274D
:10051000CB0197F908950E949E020C9451020E940B
:10052000430238F00E944A0220F0952311F00C9407
:100530003A020C94400211240C9485020E9462023B
:1005400070F3959FC1F3950F50E0551F629FF00126
:10055000729FBB27F00DB11D639FAA27F00DB11D3F
:10056000AA1F649F6627B00DA11D661F829F2227C8
:10057000B00DA11D621F739FB00DA11D621F839F4F
:10058000A00D611D221F749F3327A00D611D231F25
:10059000849F600D211D822F762F6A2F11249F5773
:1005A00050409AF0F1F088234AF0EE0FFF1FBB1F76
:1005B000661F771F881F91505040A9F79E3F510535
:1005C00080F00C943A020C9485025F3FE4F3983E6D
:1005D000D4F3869577956795B795F795E7959F5FDF
:1005E000C1F7FE2B880F911D9695879597F9089571
:0405F000F894FFCFAD
:00000001FF
